:1000000018F09FE518F09FE518F09FE518F09FE5C0
:1000100018F09FE5606FA0B814F09FE514F09FE51D
:1000200040000000FC030000FC030000FC03000093
:10003000FC030000FC030000FC030000FC030000C4
:1000400000000FE11F00C0E3120080E300F021E197
:1000500034109FE507D0C1E31F00C0E3110080E327
:1000600000F021E124109FE507D0C1E31F00C0E3A9
:100070001F0080E300F021E114109FE507D0C1E3E9
:100080000000A0E10000A0E1AB0000EA7809004018
:1000900088090040280900400120704710B509492F
:1000A00079442031084C7C441E3405E00A68081D60
:1000B000891800F00BF80100A142F7D110BC08BC70
:1000C0001847C0462403000034030000084700001E
:0400D0000F0000001D
:1002000080B5FC2080013849086000F003F800F058
:1002100013F8FCE735480168012291430160344836
:100220003449086000203449086034490860FC20E3
:100230008001334908607047F8B580267600314C5C
:10024000206830432060304F386800F03EF8264D7B
:10025000286806432E608026B60020683043206060
:10026000386800F032F8286806432E608026F600D1
:10027000206830432060386800F027F8286806437B
:100280002E6080263601206830432060386800F0F8
:100290001CF8286806432E608026760120683043CB
:1002A0002060386800F011F8286806432E60802628
:1002B000B601206830432060386800F006F82868EE
:1002C00006432E60F1BC08BC184710B50A4900224D
:1002D0000A60064A136801241C4314600A688242BB
:1002E000FCD310BC08BC1847048002E0044000E0C6
:1002F0007FBB00000C4000E0084000E000C002E0CE
:10030000088002E00C8002E02001004000C09FE570
:100310001CFF2FE19900000000C09FE51CFF2FE1AA
:100320009D00000000C09FE51CFF2FE101020000BE
:1003300000C09FE51CFF2FE17D0300000100A0E34A
:10034000F1FFFFEB000050E30000000AF1FFFFEBBC
:100350000000A0E10000A0E30000A0E1F0FFFFEB3F
:10036000F2FFFFEB070000EBFDFFFFEA08B4024BD2
:100370009C4608BC6047C046A803000080B5FFF754
:10038000F5FF09BC1847000000502DE90000A0E16E
:100390002630A0E3803B83E30310A0E11800A0E334
:1003A000563412EFFBFFFFEA0070B0E10700B0E146
:1003B000F4FFFFEBFDFFFFEA30B401220EE003681B
:1003C0004468C3180830144202D04D462C19641EEC
:1003D0001D681B1D2560241D091FF9D10168001D22
:1003E0000029ECD130BC7047D1FFFFFF04000000B2
:1003F000E0FCFFFF2001004000000000FEFFFFEADC
:040400000EF0B0E169
:0400000500000040B7
:00000001FF
