:1000000018F09FE518F09FE518F09FE518F09FE5C0
:1000100018F09FE5606FA0B814F09FE514F09FE51D
:1000200000020000FC020000FC020000FC020000D4
:10003000FC020000FC020000FC020000FC020000C8
:1000400080B500F051F800F003F800F018F8FCE774
:100050001C4801681C4A0A4002601C480168802252
:1000600052000A4302601A4801680122914301606C
:10007000184819490860002018490860704710B5F1
:100080008024640016480168214301602B2000F0A1
:100090000AF8144801680C4304602B2000F003F8B0
:1000A00010BC08BC184710B50C4900220A60084A69
:1000B000136801241C4314600A688242FCD310BCFC
:1000C00008BC184700C002E0FFFFFCFF088002E008
:1000D000044000E07FBB00000C4000E0084000E06E
:1000E0000C8002E0048002E070B5204801681F2205
:1000F000914303220A430260016860229143202257
:100100000A430260AA201A490A68FF239A4302435D
:100110000A6055220B68FF24A34313430B6001239D
:10012000144C25681D4325600D68FF26B543054323
:100130000D600D68FF26B54315430D600E4D2D680B
:10014000AD0A1D40002DF9D0236802251D4325600E
:100150000B68FF24A343184308600868FF239843F3
:1001600002430A6070BC08BC1847C04684C01FE048
:0C0170008CC01FE080C01FE088C01FE0B2
:1002000000000FE11F00C0E3120080E300F021E1D5
:1002100034109FE507D0C1E31F00C0E3110080E365
:1002200000F021E124109FE507D0C1E31F00C0E3E7
:100230001F0080E300F021E114109FE507D0C1E327
:100240000000A0E10000A0E10B0000EA70090040FE
:10025000800900402009004000C09FE51CFF2FE1FD
:10026000AD02000000C09FE51CFF2FE1410000002F
:1002700000C09FE51CFF2FE1C10200000100A0E3C8
:10028000F4FFFFEB000050E30000000A0000A0E1D3
:100290000000A0E10000A0E30000A0E1F0FFFFEB00
:1002A000F2FFFFEB080000EBFDFFFFEA01207047C3
:1002B00008B4024B9C4608BC6047C046EC020000F4
:1002C00080B5FFF7F5FF09BC1847000000502DE985
:1002D0000000A0E12630A0E3803B83E30310A0E10F
:1002E0001800A0E3563412EFFBFFFFEA0070B0E104
:1002F0000700B0E1F4FFFFEBFDFFFFEAFEFFFFEABE
:040300000EF0B0E16A
:0400000500000200F5
:00000001FF
